{
  "contractName": "DividendPayingToken",
  "abi": [
    {
      "inputs": [
        {
          "internalType": "string",
          "name": "_name",
          "type": "string"
        },
        {
          "internalType": "string",
          "name": "_symbol",
          "type": "string"
        }
      ],
      "stateMutability": "nonpayable",
      "type": "constructor"
    },
    {
      "anonymous": false,
      "inputs": [
        {
          "indexed": true,
          "internalType": "address",
          "name": "owner",
          "type": "address"
        },
        {
          "indexed": true,
          "internalType": "address",
          "name": "spender",
          "type": "address"
        },
        {
          "indexed": false,
          "internalType": "uint256",
          "name": "value",
          "type": "uint256"
        }
      ],
      "name": "Approval",
      "type": "event"
    },
    {
      "anonymous": false,
      "inputs": [
        {
          "indexed": true,
          "internalType": "address",
          "name": "to",
          "type": "address"
        },
        {
          "indexed": false,
          "internalType": "uint256",
          "name": "weiAmount",
          "type": "uint256"
        }
      ],
      "name": "DividendWithdrawn",
      "type": "event"
    },
    {
      "anonymous": false,
      "inputs": [
        {
          "indexed": true,
          "internalType": "address",
          "name": "from",
          "type": "address"
        },
        {
          "indexed": false,
          "internalType": "uint256",
          "name": "weiAmount",
          "type": "uint256"
        }
      ],
      "name": "DividendsDistributed",
      "type": "event"
    },
    {
      "anonymous": false,
      "inputs": [
        {
          "indexed": true,
          "internalType": "address",
          "name": "previousOwner",
          "type": "address"
        },
        {
          "indexed": true,
          "internalType": "address",
          "name": "newOwner",
          "type": "address"
        }
      ],
      "name": "OwnershipTransferred",
      "type": "event"
    },
    {
      "anonymous": false,
      "inputs": [
        {
          "indexed": true,
          "internalType": "address",
          "name": "from",
          "type": "address"
        },
        {
          "indexed": true,
          "internalType": "address",
          "name": "to",
          "type": "address"
        },
        {
          "indexed": false,
          "internalType": "uint256",
          "name": "value",
          "type": "uint256"
        }
      ],
      "name": "Transfer",
      "type": "event"
    },
    {
      "inputs": [],
      "name": "CAKE",
      "outputs": [
        {
          "internalType": "address",
          "name": "",
          "type": "address"
        }
      ],
      "stateMutability": "view",
      "type": "function"
    },
    {
      "inputs": [
        {
          "internalType": "address",
          "name": "owner",
          "type": "address"
        },
        {
          "internalType": "address",
          "name": "spender",
          "type": "address"
        }
      ],
      "name": "allowance",
      "outputs": [
        {
          "internalType": "uint256",
          "name": "",
          "type": "uint256"
        }
      ],
      "stateMutability": "view",
      "type": "function"
    },
    {
      "inputs": [
        {
          "internalType": "address",
          "name": "spender",
          "type": "address"
        },
        {
          "internalType": "uint256",
          "name": "amount",
          "type": "uint256"
        }
      ],
      "name": "approve",
      "outputs": [
        {
          "internalType": "bool",
          "name": "",
          "type": "bool"
        }
      ],
      "stateMutability": "nonpayable",
      "type": "function"
    },
    {
      "inputs": [
        {
          "internalType": "address",
          "name": "account",
          "type": "address"
        }
      ],
      "name": "balanceOf",
      "outputs": [
        {
          "internalType": "uint256",
          "name": "",
          "type": "uint256"
        }
      ],
      "stateMutability": "view",
      "type": "function"
    },
    {
      "inputs": [],
      "name": "decimals",
      "outputs": [
        {
          "internalType": "uint8",
          "name": "",
          "type": "uint8"
        }
      ],
      "stateMutability": "view",
      "type": "function"
    },
    {
      "inputs": [
        {
          "internalType": "address",
          "name": "spender",
          "type": "address"
        },
        {
          "internalType": "uint256",
          "name": "subtractedValue",
          "type": "uint256"
        }
      ],
      "name": "decreaseAllowance",
      "outputs": [
        {
          "internalType": "bool",
          "name": "",
          "type": "bool"
        }
      ],
      "stateMutability": "nonpayable",
      "type": "function"
    },
    {
      "inputs": [
        {
          "internalType": "address",
          "name": "spender",
          "type": "address"
        },
        {
          "internalType": "uint256",
          "name": "addedValue",
          "type": "uint256"
        }
      ],
      "name": "increaseAllowance",
      "outputs": [
        {
          "internalType": "bool",
          "name": "",
          "type": "bool"
        }
      ],
      "stateMutability": "nonpayable",
      "type": "function"
    },
    {
      "inputs": [],
      "name": "name",
      "outputs": [
        {
          "internalType": "string",
          "name": "",
          "type": "string"
        }
      ],
      "stateMutability": "view",
      "type": "function"
    },
    {
      "inputs": [],
      "name": "owner",
      "outputs": [
        {
          "internalType": "address",
          "name": "",
          "type": "address"
        }
      ],
      "stateMutability": "view",
      "type": "function"
    },
    {
      "inputs": [],
      "name": "renounceOwnership",
      "outputs": [],
      "stateMutability": "nonpayable",
      "type": "function"
    },
    {
      "inputs": [],
      "name": "symbol",
      "outputs": [
        {
          "internalType": "string",
          "name": "",
          "type": "string"
        }
      ],
      "stateMutability": "view",
      "type": "function"
    },
    {
      "inputs": [],
      "name": "totalDividendsDistributed",
      "outputs": [
        {
          "internalType": "uint256",
          "name": "",
          "type": "uint256"
        }
      ],
      "stateMutability": "view",
      "type": "function"
    },
    {
      "inputs": [],
      "name": "totalSupply",
      "outputs": [
        {
          "internalType": "uint256",
          "name": "",
          "type": "uint256"
        }
      ],
      "stateMutability": "view",
      "type": "function"
    },
    {
      "inputs": [
        {
          "internalType": "address",
          "name": "recipient",
          "type": "address"
        },
        {
          "internalType": "uint256",
          "name": "amount",
          "type": "uint256"
        }
      ],
      "name": "transfer",
      "outputs": [
        {
          "internalType": "bool",
          "name": "",
          "type": "bool"
        }
      ],
      "stateMutability": "nonpayable",
      "type": "function"
    },
    {
      "inputs": [
        {
          "internalType": "address",
          "name": "sender",
          "type": "address"
        },
        {
          "internalType": "address",
          "name": "recipient",
          "type": "address"
        },
        {
          "internalType": "uint256",
          "name": "amount",
          "type": "uint256"
        }
      ],
      "name": "transferFrom",
      "outputs": [
        {
          "internalType": "bool",
          "name": "",
          "type": "bool"
        }
      ],
      "stateMutability": "nonpayable",
      "type": "function"
    },
    {
      "inputs": [
        {
          "internalType": "address",
          "name": "newOwner",
          "type": "address"
        }
      ],
      "name": "transferOwnership",
      "outputs": [],
      "stateMutability": "nonpayable",
      "type": "function"
    },
    {
      "inputs": [
        {
          "internalType": "uint256",
          "name": "amount",
          "type": "uint256"
        }
      ],
      "name": "distributeCAKEDividends",
      "outputs": [],
      "stateMutability": "nonpayable",
      "type": "function"
    },
    {
      "inputs": [],
      "name": "withdrawDividend",
      "outputs": [],
      "stateMutability": "nonpayable",
      "type": "function"
    },
    {
      "inputs": [
        {
          "internalType": "address",
          "name": "_owner",
          "type": "address"
        }
      ],
      "name": "dividendOf",
      "outputs": [
        {
          "internalType": "uint256",
          "name": "",
          "type": "uint256"
        }
      ],
      "stateMutability": "view",
      "type": "function"
    },
    {
      "inputs": [
        {
          "internalType": "address",
          "name": "_owner",
          "type": "address"
        }
      ],
      "name": "withdrawableDividendOf",
      "outputs": [
        {
          "internalType": "uint256",
          "name": "",
          "type": "uint256"
        }
      ],
      "stateMutability": "view",
      "type": "function"
    },
    {
      "inputs": [
        {
          "internalType": "address",
          "name": "_owner",
          "type": "address"
        }
      ],
      "name": "withdrawnDividendOf",
      "outputs": [
        {
          "internalType": "uint256",
          "name": "",
          "type": "uint256"
        }
      ],
      "stateMutability": "view",
      "type": "function"
    },
    {
      "inputs": [
        {
          "internalType": "address",
          "name": "_owner",
          "type": "address"
        }
      ],
      "name": "accumulativeDividendOf",
      "outputs": [
        {
          "internalType": "uint256",
          "name": "",
          "type": "uint256"
        }
      ],
      "stateMutability": "view",
      "type": "function"
    }
  ],
  "bytecode": "0x608060405260068054600160a060020a031916731f9840a85d5af5bf1d1762f925bdaddc4201f9841790553480156200003757600080fd5b506040516200140338038062001403833981810160405260408110156200005d57600080fd5b81019080805160405193929190846401000000008211156200007e57600080fd5b9083019060208201858111156200009457600080fd5b8251640100000000811182820188101715620000af57600080fd5b82525081516020918201929091019080838360005b83811015620000de578181015183820152602001620000c4565b50505050905090810190601f1680156200010c5780820380516001836020036101000a031916815260200191505b50604052602001805160405193929190846401000000008211156200013057600080fd5b9083019060208201858111156200014657600080fd5b82516401000000008111828201881017156200016157600080fd5b82525081516020918201929091019080838360005b838110156200019057818101518382015260200162000176565b50505050905090810190601f168015620001be5780820380516001836020036101000a031916815260200191505b50604052505082518391508290620001de9060039060208501906200026d565b508051620001f49060049060208401906200026d565b50505060006200021262000268640100000000026401000000009004565b60058054600160a060020a031916600160a060020a038316908117909155604051919250906000907f8be0079c531659141344cd1fd0a4f28419497f9722a3daafe3b4186f6b6457e0908290a35050506200030f565b335b90565b828054600181600116156101000203166002900490600052602060002090601f016020900481019282601f10620002b057805160ff1916838001178555620002e0565b82800160010185558215620002e0579182015b82811115620002e0578251825591602001919060010190620002c3565b50620002ee929150620002f2565b5090565b6200026a91905b80821115620002ee5760008155600101620002f9565b6110e4806200031f6000396000f3fe608060405234801561001057600080fd5b506004361061015f576000357c01000000000000000000000000000000000000000000000000000000009004806385a6b3ae116100d5578063a8b9d24011610099578063a8b9d240146103a7578063a9059cbb146103cd578063aafd847a146103f9578063ba72a9551461041f578063dd62ed3e1461043c578063f2fde38b1461046a5761015f565b806385a6b3ae1461033d5780638da5cb5b1461034557806391b89fba1461034d57806395d89b4114610373578063a457c2d71461037b5761015f565b8063313ce56711610127578063313ce5671461029757806339509351146102b55780634ca6ef28146102e15780636a4740021461030557806370a082311461030f578063715018a6146103355761015f565b806306fdde0314610164578063095ea7b3146101e157806318160ddd1461022157806323b872dd1461023b57806327ce014714610271575b600080fd5b61016c610490565b6040805160208082528351818301528351919283929083019185019080838360005b838110156101a657818101518382015260200161018e565b50505050905090810190601f1680156101d35780820380516001836020036101000a031916815260200191505b509250505060405180910390f35b61020d600480360360408110156101f757600080fd5b50600160a060020a038135169060200135610526565b604080519115158252519081900360200190f35b610229610544565b60408051918252519081900360200190f35b61020d6004803603606081101561025157600080fd5b50600160a060020a0381358116916020810135909116906040013561054a565b6102296004803603602081101561028757600080fd5b5035600160a060020a03166105d7565b61029f61064f565b6040805160ff9092168252519081900360200190f35b61020d600480360360408110156102cb57600080fd5b50600160a060020a038135169060200135610654565b6102e96106a8565b60408051600160a060020a039092168252519081900360200190f35b61030d6106b7565b005b6102296004803603602081101561032557600080fd5b5035600160a060020a03166106c3565b61030d6106de565b6102296107a2565b6102e96107a8565b6102296004803603602081101561036357600080fd5b5035600160a060020a03166107b7565b61016c6107c2565b61020d6004803603604081101561039157600080fd5b50600160a060020a038135169060200135610823565b610229600480360360208110156103bd57600080fd5b5035600160a060020a0316610891565b61020d600480360360408110156103e357600080fd5b50600160a060020a0381351690602001356108c3565b6102296004803603602081101561040f57600080fd5b5035600160a060020a03166108d7565b61030d6004803603602081101561043557600080fd5b50356108f2565b6102296004803603604081101561045257600080fd5b50600160a060020a0381358116916020013516610a0f565b61030d6004803603602081101561048057600080fd5b5035600160a060020a0316610a3a565b60038054604080516020601f600260001961010060018816150201909516949094049384018190048102820181019092528281526060939092909183018282801561051c5780601f106104f15761010080835404028352916020019161051c565b820191906000526020600020905b8154815290600101906020018083116104ff57829003601f168201915b5050505050905090565b600061053a610533610b58565b8484610b5c565b5060015b92915050565b60025490565b600061055784848461015f565b6105cd84610563610b58565b6105c88560405180606001604052806028815260200161103e60289139600160a060020a038a166000908152600160205260408120906105a1610b58565b600160a060020a03168152602081019190915260400160002054919063ffffffff610c4e16565b610b5c565b5060019392505050565b600160a060020a0381166000908152600860205260408120547001000000000000000000000000000000009061063f9061063a9061062e61062961061a886106c3565b6007549063ffffffff610ce816565b610d4b565b9063ffffffff610d5b16565b610d8e565b8161064657fe5b0490505b919050565b601290565b600061053a610661610b58565b846105c88560016000610672610b58565b600160a060020a03908116825260208083019390935260409182016000908120918c16815292529020549063ffffffff610da116565b600654600160a060020a031681565b6106c033610dfe565b50565b600160a060020a031660009081526020819052604090205490565b6106e6610b58565b600554600160a060020a0390811691161461074b576040805160e560020a62461bcd02815260206004820181905260248201527f4f776e61626c653a2063616c6c6572206973206e6f7420746865206f776e6572604482015290519081900360640190fd5b600554604051600091600160a060020a0316907f8be0079c531659141344cd1fd0a4f28419497f9722a3daafe3b4186f6b6457e0908390a36005805473ffffffffffffffffffffffffffffffffffffffff19169055565b600a5481565b600554600160a060020a031690565b600061053e82610891565b60048054604080516020601f600260001961010060018816150201909516949094049384018190048102820181019092528281526060939092909183018282801561051c5780601f106104f15761010080835404028352916020019161051c565b600061053a610830610b58565b846105c88560405180606001604052806025815260200161108a602591396001600061085a610b58565b600160a060020a03908116825260208083019390935260409182016000908120918d1681529252902054919063ffffffff610c4e16565b600160a060020a03811660009081526009602052604081205461053e906108b7846105d7565b9063ffffffff610f9216565b600061053a6108d0610b58565b848461015f565b600160a060020a031660009081526009602052604090205490565b6108fa610b58565b600554600160a060020a0390811691161461095f576040805160e560020a62461bcd02815260206004820181905260248201527f4f776e61626c653a2063616c6c6572206973206e6f7420746865206f776e6572604482015290519081900360640190fd5b6000610969610544565b1161097357600080fd5b80156106c0576109bd610984610544565b6109a58370010000000000000000000000000000000063ffffffff610ce816565b816109ac57fe5b60075491900463ffffffff610da116565b60075560408051828152905133917fa493a9229478c3fcd73f66d2cdeb7f94fd0f341da924d1054236d78454116511919081900360200190a2600a54610a09908263ffffffff610da116565b600a5550565b600160a060020a03918216600090815260016020908152604080832093909416825291909152205490565b610a42610b58565b600554600160a060020a03908116911614610aa7576040805160e560020a62461bcd02815260206004820181905260248201527f4f776e61626c653a2063616c6c6572206973206e6f7420746865206f776e6572604482015290519081900360640190fd5b600160a060020a038116610aef5760405160e560020a62461bcd028152600401808060200182810382526026815260200180610fd56026913960400191505060405180910390fd5b600554604051600160a060020a038084169216907f8be0079c531659141344cd1fd0a4f28419497f9722a3daafe3b4186f6b6457e090600090a36005805473ffffffffffffffffffffffffffffffffffffffff1916600160a060020a0392909216919091179055565b3390565b600160a060020a038316610ba45760405160e560020a62461bcd0281526004018080602001828103825260248152602001806110666024913960400191505060405180910390fd5b600160a060020a038216610bec5760405160e560020a62461bcd028152600401808060200182810382526022815260200180610ffb6022913960400191505060405180910390fd5b600160a060020a03808416600081815260016020908152604080832094871680845294825291829020859055815185815291517f8c5be1e5ebec7d5bd14f71427d1e84f3dd0314c0f7b2291e5b200ac8c7c3b9259281900390910190a3505050565b60008184841115610ce05760405160e560020a62461bcd0281526004018080602001828103825283818151815260200191508051906020019080838360005b83811015610ca5578181015183820152602001610c8d565b50505050905090810190601f168015610cd25780820380516001836020036101000a031916815260200191505b509250505060405180910390fd5b505050900390565b600082610cf75750600061053e565b82820282848281610d0457fe5b0414610d445760405160e560020a62461bcd02815260040180806020018281038252602181526020018061101d6021913960400191505060405180910390fd5b9392505050565b6000818181121561053e57600080fd5b6000828201818312801590610d705750838112155b80610d855750600083128015610d8557508381125b610d4457600080fd5b600080821215610d9d57600080fd5b5090565b600082820183811015610d44576040805160e560020a62461bcd02815260206004820152601b60248201527f536166654d6174683a206164646974696f6e206f766572666c6f770000000000604482015290519081900360640190fd5b600080610e0a83610891565b90508015610f8957600160a060020a038316600090815260096020526040902054610e3b908263ffffffff610da116565b600160a060020a038416600081815260096020908152604091829020939093558051848152905191927fee503bee2bb6a87e57bc57db795f98137327401a0e7b7ce42e37926cc1a9ca4d92918290030190a2600654604080517fa9059cbb000000000000000000000000000000000000000000000000000000008152600160a060020a038681166004830152602482018590529151600093929092169163a9059cbb9160448082019260209290919082900301818787803b158015610eff57600080fd5b505af1158015610f13573d6000803e3d6000fd5b505050506040513d6020811015610f2957600080fd5b5051905080610f8157600160a060020a038416600090815260096020526040902054610f5b908363ffffffff610f9216565b600160a060020a038516600090815260096020526040812091909155925061064a915050565b50905061064a565b50600092915050565b6000610d4483836040518060400160405280601e81526020017f536166654d6174683a207375627472616374696f6e206f766572666c6f770000815250610c4e56fe4f776e61626c653a206e6577206f776e657220697320746865207a65726f206164647265737345524332303a20617070726f766520746f20746865207a65726f2061646472657373536166654d6174683a206d756c7469706c69636174696f6e206f766572666c6f7745524332303a207472616e7366657220616d6f756e74206578636565647320616c6c6f77616e636545524332303a20617070726f76652066726f6d20746865207a65726f206164647265737345524332303a2064656372656173656420616c6c6f77616e63652062656c6f77207a65726fa2646970667358221220d98bd309899623b6fcb9fbe42f8f34169fab37ef9ef8ed086ca65a60a7b7b17764736f6c63430006020033",
  "source": "// SPDX-License-Identifier: MIT\r\n\r\npragma solidity ^0.6.2;\r\n\r\nimport \"./ERC20.sol\";\r\nimport \"./SafeMath.sol\";\r\nimport \"./SafeMathUint.sol\";\r\nimport \"./SafeMathInt.sol\";\r\nimport \"./DividendPayingTokenInterface.sol\";\r\nimport \"./DividendPayingTokenOptionalInterface.sol\";\r\nimport \"./Ownable.sol\";\r\n\r\n/// @title Dividend-Paying Token\r\n/// @author Roger Wu (https://github.com/roger-wu)\r\n/// @dev A mintable ERC20 token that allows anyone to pay and distribute ether\r\n///  to token holders as dividends and allows token holders to withdraw their dividends.\r\n///  Reference: the source code of PoWH3D: https://etherscan.io/address/0xB3775fB83F7D12A36E0475aBdD1FCA35c091efBe#code\r\ncontract DividendPayingToken is\r\n    ERC20,\r\n    Ownable,\r\n    DividendPayingTokenInterface,\r\n    DividendPayingTokenOptionalInterface\r\n{\r\n    using SafeMath for uint256;\r\n    using SafeMathUint for uint256;\r\n    using SafeMathInt for int256;\r\n\r\n    address public CAKE = address(0x1f9840a85d5aF5bf1D1762F925BDADdC4201F984); //CAKE:0x0E09FaBB73Bd3Ade0a17ECC321fD13a19e81cE82\r\n\r\n    // With `magnitude`, we can properly distribute dividends even if the amount of received ether is small.\r\n    // For more discussion about choosing the value of `magnitude`,\r\n    //  see https://github.com/ethereum/EIPs/issues/1726#issuecomment-472352728\r\n    uint256 internal constant magnitude = 2**128;\r\n\r\n    uint256 internal magnifiedDividendPerShare;\r\n\r\n    // About dividendCorrection:\r\n    // If the token balance of a `_user` is never changed, the dividend of `_user` can be computed with:\r\n    //   `dividendOf(_user) = dividendPerShare * balanceOf(_user)`.\r\n    // When `balanceOf(_user)` is changed (via minting/burning/transferring tokens),\r\n    //   `dividendOf(_user)` should not be changed,\r\n    //   but the computed value of `dividendPerShare * balanceOf(_user)` is changed.\r\n    // To keep the `dividendOf(_user)` unchanged, we add a correction term:\r\n    //   `dividendOf(_user) = dividendPerShare * balanceOf(_user) + dividendCorrectionOf(_user)`,\r\n    //   where `dividendCorrectionOf(_user)` is updated whenever `balanceOf(_user)` is changed:\r\n    //   `dividendCorrectionOf(_user) = dividendPerShare * (old balanceOf(_user)) - (new balanceOf(_user))`.\r\n    // So now `dividendOf(_user)` returns the same value before and after `balanceOf(_user)` is changed.\r\n    mapping(address => int256) internal magnifiedDividendCorrections;\r\n    mapping(address => uint256) internal withdrawnDividends;\r\n\r\n    uint256 public totalDividendsDistributed;\r\n\r\n    constructor(string memory _name, string memory _symbol)\r\n        public\r\n        ERC20(_name, _symbol)\r\n    {}\r\n\r\n    function distributeCAKEDividends(uint256 amount) public onlyOwner {\r\n        require(totalSupply() > 0);\r\n\r\n        if (amount > 0) {\r\n            magnifiedDividendPerShare = magnifiedDividendPerShare.add(\r\n                (amount).mul(magnitude) / totalSupply()\r\n            );\r\n            emit DividendsDistributed(msg.sender, amount);\r\n\r\n            totalDividendsDistributed = totalDividendsDistributed.add(amount);\r\n        }\r\n    }\r\n\r\n    /// @notice Withdraws the ether distributed to the sender.\r\n    /// @dev It emits a `DividendWithdrawn` event if the amount of withdrawn ether is greater than 0.\r\n    function withdrawDividend() public virtual override {\r\n        _withdrawDividendOfUser(msg.sender);\r\n    }\r\n\r\n    /// @notice Withdraws the ether distributed to the sender.\r\n    /// @dev It emits a `DividendWithdrawn` event if the amount of withdrawn ether is greater than 0.\r\n    function _withdrawDividendOfUser(address payable user)\r\n        internal\r\n        returns (uint256)\r\n    {\r\n        uint256 _withdrawableDividend = withdrawableDividendOf(user);\r\n        if (_withdrawableDividend > 0) {\r\n            withdrawnDividends[user] = withdrawnDividends[user].add(\r\n                _withdrawableDividend\r\n            );\r\n            emit DividendWithdrawn(user, _withdrawableDividend);\r\n            bool success = IERC20(CAKE).transfer(user, _withdrawableDividend);\r\n\r\n            if (!success) {\r\n                withdrawnDividends[user] = withdrawnDividends[user].sub(\r\n                    _withdrawableDividend\r\n                );\r\n                return 0;\r\n            }\r\n\r\n            return _withdrawableDividend;\r\n        }\r\n\r\n        return 0;\r\n    }\r\n\r\n    /// @notice View the amount of dividend in wei that an address can withdraw.\r\n    /// @param _owner The address of a token holder.\r\n    /// @return The amount of dividend in wei that `_owner` can withdraw.\r\n    function dividendOf(address _owner) public view override returns (uint256) {\r\n        return withdrawableDividendOf(_owner);\r\n    }\r\n\r\n    /// @notice View the amount of dividend in wei that an address can withdraw.\r\n    /// @param _owner The address of a token holder.\r\n    /// @return The amount of dividend in wei that `_owner` can withdraw.\r\n    function withdrawableDividendOf(address _owner)\r\n        public\r\n        view\r\n        override\r\n        returns (uint256)\r\n    {\r\n        return accumulativeDividendOf(_owner).sub(withdrawnDividends[_owner]);\r\n    }\r\n\r\n    /// @notice View the amount of dividend in wei that an address has withdrawn.\r\n    /// @param _owner The address of a token holder.\r\n    /// @return The amount of dividend in wei that `_owner` has withdrawn.\r\n    function withdrawnDividendOf(address _owner)\r\n        public\r\n        view\r\n        override\r\n        returns (uint256)\r\n    {\r\n        return withdrawnDividends[_owner];\r\n    }\r\n\r\n    /// @notice View the amount of dividend in wei that an address has earned in total.\r\n    /// @dev accumulativeDividendOf(_owner) = withdrawableDividendOf(_owner) + withdrawnDividendOf(_owner)\r\n    /// = (magnifiedDividendPerShare * balanceOf(_owner) + magnifiedDividendCorrections[_owner]) / magnitude\r\n    /// @param _owner The address of a token holder.\r\n    /// @return The amount of dividend in wei that `_owner` has earned in total.\r\n    function accumulativeDividendOf(address _owner)\r\n        public\r\n        view\r\n        override\r\n        returns (uint256)\r\n    {\r\n        return\r\n            magnifiedDividendPerShare\r\n            .mul(balanceOf(_owner))\r\n            .toInt256Safe()\r\n            .add(magnifiedDividendCorrections[_owner])\r\n            .toUint256Safe() / magnitude;\r\n    }\r\n\r\n    /// @dev Internal function that transfer tokens from one address to another.\r\n    /// Update magnifiedDividendCorrections to keep dividends unchanged.\r\n    /// @param from The address to transfer from.\r\n    /// @param to The address to transfer to.\r\n    /// @param value The amount to be transferred.\r\n    function _transfer(\r\n        address from,\r\n        address to,\r\n        uint256 value\r\n    ) internal virtual override {\r\n        require(false);\r\n\r\n        int256 _magCorrection = magnifiedDividendPerShare\r\n        .mul(value)\r\n        .toInt256Safe();\r\n        magnifiedDividendCorrections[from] = magnifiedDividendCorrections[from]\r\n        .add(_magCorrection);\r\n        magnifiedDividendCorrections[to] = magnifiedDividendCorrections[to].sub(\r\n            _magCorrection\r\n        );\r\n    }\r\n\r\n    /// @dev Internal function that mints tokens to an account.\r\n    /// Update magnifiedDividendCorrections to keep dividends unchanged.\r\n    /// @param account The account that will receive the created tokens.\r\n    /// @param value The amount that will be created.\r\n    function _mint(address account, uint256 value) internal override {\r\n        super._mint(account, value);\r\n\r\n        magnifiedDividendCorrections[account] = magnifiedDividendCorrections[\r\n            account\r\n        ]\r\n        .sub((magnifiedDividendPerShare.mul(value)).toInt256Safe());\r\n    }\r\n\r\n    /// @dev Internal function that burns an amount of the token of a given account.\r\n    /// Update magnifiedDividendCorrections to keep dividends unchanged.\r\n    /// @param account The account whose tokens will be burnt.\r\n    /// @param value The amount that will be burnt.\r\n    function _burn(address account, uint256 value) internal override {\r\n        super._burn(account, value);\r\n\r\n        magnifiedDividendCorrections[account] = magnifiedDividendCorrections[\r\n            account\r\n        ]\r\n        .add((magnifiedDividendPerShare.mul(value)).toInt256Safe());\r\n    }\r\n\r\n    function _setBalance(address account, uint256 newBalance) internal {\r\n        uint256 currentBalance = balanceOf(account);\r\n\r\n        if (newBalance > currentBalance) {\r\n            uint256 mintAmount = newBalance.sub(currentBalance);\r\n            _mint(account, mintAmount);\r\n        } else if (newBalance < currentBalance) {\r\n            uint256 burnAmount = currentBalance.sub(newBalance);\r\n            _burn(account, burnAmount);\r\n        }\r\n    }\r\n}\r\n",
  "sourcePath": "C:\\Users\\a\\Desktop\\projects\\in-progress\\babycake\\contracts\\DividendPayingToken.sol",
  "compiler": {
    "name": "solc",
    "version": "0.6.2+commit.bacdbe57.Emscripten.clang"
  },
  "schemaVersion": "3.4.1",
  "updatedAt": "2021-07-25T13:56:00.013Z",
  "devdoc": {
    "author": "Roger Wu (https://github.com/roger-wu)",
    "details": "A mintable ERC20 token that allows anyone to pay and distribute ether  to token holders as dividends and allows token holders to withdraw their dividends.  Reference: the source code of PoWH3D: https://etherscan.io/address/0xB3775fB83F7D12A36E0475aBdD1FCA35c091efBe#code",
    "methods": {
      "accumulativeDividendOf(address)": {
        "details": "accumulativeDividendOf(_owner) = withdrawableDividendOf(_owner) + withdrawnDividendOf(_owner) = (magnifiedDividendPerShare * balanceOf(_owner) + magnifiedDividendCorrections[_owner]) / magnitude",
        "params": {
          "_owner": "The address of a token holder."
        },
        "returns": {
          "_0": "The amount of dividend in wei that `_owner` has earned in total."
        }
      },
      "allowance(address,address)": {
        "details": "See {IERC20-allowance}."
      },
      "approve(address,uint256)": {
        "details": "See {IERC20-approve}.      * Requirements:      * - `spender` cannot be the zero address."
      },
      "balanceOf(address)": {
        "details": "See {IERC20-balanceOf}."
      },
      "decimals()": {
        "details": "Returns the number of decimals used to get its user representation. For example, if `decimals` equals `2`, a balance of `505` tokens should be displayed to a user as `5,05` (`505 / 10 ** 2`).      * Tokens usually opt for a value of 18, imitating the relationship between Ether and Wei. This is the value {ERC20} uses, unless this function is overridden;      * NOTE: This information is only used for _display_ purposes: it in no way affects any of the arithmetic of the contract, including {IERC20-balanceOf} and {IERC20-transfer}."
      },
      "decreaseAllowance(address,uint256)": {
        "details": "Atomically decreases the allowance granted to `spender` by the caller.      * This is an alternative to {approve} that can be used as a mitigation for problems described in {IERC20-approve}.      * Emits an {Approval} event indicating the updated allowance.      * Requirements:      * - `spender` cannot be the zero address. - `spender` must have allowance for the caller of at least `subtractedValue`."
      },
      "dividendOf(address)": {
        "params": {
          "_owner": "The address of a token holder."
        },
        "returns": {
          "_0": "The amount of dividend in wei that `_owner` can withdraw."
        }
      },
      "increaseAllowance(address,uint256)": {
        "details": "Atomically increases the allowance granted to `spender` by the caller.      * This is an alternative to {approve} that can be used as a mitigation for problems described in {IERC20-approve}.      * Emits an {Approval} event indicating the updated allowance.      * Requirements:      * - `spender` cannot be the zero address."
      },
      "name()": {
        "details": "Returns the name of the token."
      },
      "owner()": {
        "details": "Returns the address of the current owner."
      },
      "renounceOwnership()": {
        "details": "Leaves the contract without owner. It will not be possible to call `onlyOwner` functions anymore. Can only be called by the current owner.      * NOTE: Renouncing ownership will leave the contract without an owner, thereby removing any functionality that is only available to the owner."
      },
      "symbol()": {
        "details": "Returns the symbol of the token, usually a shorter version of the name."
      },
      "totalSupply()": {
        "details": "See {IERC20-totalSupply}."
      },
      "transfer(address,uint256)": {
        "details": "See {IERC20-transfer}.      * Requirements:      * - `recipient` cannot be the zero address. - the caller must have a balance of at least `amount`."
      },
      "transferFrom(address,address,uint256)": {
        "details": "See {IERC20-transferFrom}.      * Emits an {Approval} event indicating the updated allowance. This is not required by the EIP. See the note at the beginning of {ERC20}.      * Requirements:      * - `sender` and `recipient` cannot be the zero address. - `sender` must have a balance of at least `amount`. - the caller must have allowance for ``sender``'s tokens of at least `amount`."
      },
      "transferOwnership(address)": {
        "details": "Transfers ownership of the contract to a new account (`newOwner`). Can only be called by the current owner."
      },
      "withdrawDividend()": {
        "details": "It emits a `DividendWithdrawn` event if the amount of withdrawn ether is greater than 0."
      },
      "withdrawableDividendOf(address)": {
        "params": {
          "_owner": "The address of a token holder."
        },
        "returns": {
          "_0": "The amount of dividend in wei that `_owner` can withdraw."
        }
      },
      "withdrawnDividendOf(address)": {
        "params": {
          "_owner": "The address of a token holder."
        },
        "returns": {
          "_0": "The amount of dividend in wei that `_owner` has withdrawn."
        }
      }
    },
    "title": "Dividend-Paying Token"
  },
  "userdoc": {
    "methods": {
      "accumulativeDividendOf(address)": {
        "notice": "View the amount of dividend in wei that an address has earned in total."
      },
      "dividendOf(address)": {
        "notice": "View the amount of dividend in wei that an address can withdraw."
      },
      "withdrawDividend()": {
        "notice": "Withdraws the ether distributed to the sender."
      },
      "withdrawableDividendOf(address)": {
        "notice": "View the amount of dividend in wei that an address can withdraw."
      },
      "withdrawnDividendOf(address)": {
        "notice": "View the amount of dividend in wei that an address has withdrawn."
      }
    }
  }
}